:020000041000EA
:1000000000B52F4B212058609868022188439860E2
:10001000D860186158612B4B002199600221596109
:100020000121F02299502849196001219960352059
:1000300000F03EF80222904214D00621196600F02A
:100040002EF8196E01211966002018661A6600F054
:1000500026F8196E196E196E052000F029F8012195
:100060000842F9D1002199601849196000215960AE
:1000700017491848016001219960EB211966A021F8
:10008000196600F00CF800219960134911480160CD
:100090000121996001BC002800D11048004703B538
:1000A000996A04200142FBD001200142F8D103BD2E
:1000B00002B518661866FFF7F2FF186E186E02BDDB
:1000C00000000240000000180000070000035F006D
:1000D00021220000F4000018222000A001010010DD
:1000E0000000000000000000000000000000000010
:1000F0000000000000000000000000003E272A6011
:10010000274800E000202749886006C881F3088856
:10011000104725480068002839D112A40ECC0029C8
:1001200002D000F012F8F9E72049214A002000E04F
:1001300001C19142FCD11F4988471F4988471F4987
:10014000884700BEFDE701C901C29A42FBD3704750
:10015000F2EB8871FC8D0010208E001064010010FD
:1001600090A31AE7208E0010C0000020F80B00209A
:100170005899001000000420000004205899001035
:1001800000100420001004200000000070470C48FC
:1001900005F028FC0047EFF30580C0B2704700006F
:1001A0000002001000ED00E0000000D0F80B00207D
:1001B00084200020FD540010DD7200101D56001038
:1001C0005756000006005250ABB36053E48A00104B
:1001D00006005250861C0302F48A0010060052509A
:1001E0005422A29D008B001005005250DE65F46879
:1001F00058990010000000000000000000000000FE
:100200000020042013010010C3020010C5020010DA
:10021000C1020010C1020010C1020010C102001092
:10022000C1020010C1020010C1020010C70200107C
:10023000C1020010C1020010C9020010CB02001060
:10024000CD020010CD020010CD020010CD02001032
:10025000CD020010CD020010CD020010CD02001022
:10026000CD020010CD020010CD020010CD02001012
:10027000CD020010CD020010CD020010CD02001002
:10028000CD020010CD020010CD020010CD020010F2
:10029000CD020010CD020010CD020010CD020010E2
:1002A000CD020010CD020010CD020010CD020010D2
:1002B000CD020010CD020010CD020010CD020010C2
:1002C00000BE00BE00BE00BE00BE00BEFFF763FF62
:1002D000103800BEF8B5C04610B5064C2378002B88
:1002E00007D1054B002B02D0044800E000BF0123DA
:1002F000237010BD000C002000000000708500106D
:10030000044B10B5002B03D00349044800E000BFA4
:1003100010BDC04600000000040C002070850010D5
:1003200070B5084D084C094E280008F001F9216805
:100330000A224B1C3000236006F0B0FB280008F0B6
:10034000D7F8F1E76C1D002098160020280C00203B
:1003500070B50125144B154C15481D74636025724A
:1003600000F0D4F9134E3378002B0AD1124806F06E
:1003700073FA60683570002802D0237A012B08D9FF
:1003800070BD60680028FBD0237A012BF8D80B4998
:1003900000E00B4906F0C8FA606806F0F1FA606800
:1003A0000368DB689847EBE7280C00201C0C002052
:1003B000708500108C1D0020210300109485001012
:1003C0007C85001010B5084C200008F0B1F8074BF0
:1003D000074819684A1C1A600A2206F05FFB2000D1
:1003E00008F086F810BDC0466C1D0020981600204D
:1003F000280C0020012210B50121034804F0C8F8A0
:100400000022024B1A7010BD6C1D00208C1D0020B4
:10041000F0B5002910D045180D272021094B0A4AB4
:1004200000269E5F0478A64207D093691942FCD14A
:1004300001301460A842F5D1F0BD93691942FCD196
:100440001760F2E7541E00200040034030B505005D
:100450000020002910DD1024094A013D93691C4247
:1004600008D1013093691C42FCD113682B5481429E
:10047000F4D130BD0028FCD103204042F9E7C0464A
:1004800000400340E12110B50A4B49021B780A4B9A
:100490000A481B7804F0B4FF0221002004F098FF02
:1004A0000221012004F094FF0121054800F0A4F985
:1004B00010BDC046148E0010188E0010004003407E
:1004C000D002002070B515001C0004F099FF6B1CD1
:1004D00003D00221280004F07BFF631C03D002211B
:1004E000200004F075FF0121014800F085F970BD7E
:1004F000D0020020F8B54746CE460D0080B5160064
:100500000700002A20DD4B1E98461A4B00240020CD
:100510009946002C2BD043461B5D0D3B5A4253415C
:10052000DBB22A5D0A2A13D00134A642F1DC8642EE
:1005300003DD311A3B6828189847AD19013D2B7827
:100540000D3B5A4253413B740CBC90469946F8BD52
:10055000002BE9D1A04203DA211A3B6828189847FA
:10056000484602213B68013498472000DDE73B7C88
:10057000D7E7C04608860010F8B54746CE460C00BF
:10058000096880B50700802907D04B1C23606418D8
:1005900027710CBC90469946F8BD134B1D68002D81
:1005A0001BD0124B9846231D994602E0ED68002DA2
:1005B00013D02E68002EF9D043461B68002B01D0C3
:1005C0009D42F3D16B7C2268002B09D0280049465C
:1005D000FFF790FFED68002DEBD101230021D5E757
:1005E00011004846B047E1E7C8160020CC160020AD
:1005F000F0B557464546DE464E46D023E0B51B06CD
:100600001C68374B83B007000D00180001A9904605
:100610009A4607F095FF8146002807D1019B9C422E
:1006200004D0504607F09CFF012399466B1C03D170
:10063000380007F0A7F905002A4B1C68002C2FD0C2
:100640000A23294E9B4602E0E468002C28D0226849
:10065000002AF9D03368002B01D0A342F4D1637C87
:10066000002B2AD02A0039002000FFF743FF434621
:10067000002BE9D06B465A461A71637C002B20D0C0
:10068000237C002B26D00121236801A898476B46C4
:100690001B790D3B5A4253412374E468002CD6D198
:1006A0004B46002B12D1681E8541E8B203B03CBC1A
:1006B00090469946A246AB46F0BD290038009047C7
:1006C000D5E70121236801A89847BDE7504607F008
:1006D00017FFE8E70221054823689847D7E7C04697
:1006E000D00B0020C8160020CC1600200886001071
:1006F00010B582B06B4604000022D81D01210470A1
:10070000FFF776FF200002B010BDC04670B50400B0
:1007100007F038F90122010005002000FFF768FF0B
:10072000084B1C68002C06D06368002B05D0984746
:10073000E468002CF8D1280070BDE468002CF3D1E7
:10074000F9E7C046C8160020F0B5CE46474680B54A
:100750000D00160083B000282CD11B4B1B4F1A68CC
:100760005B68019200931A4B99461A4B98464B4688
:100770001C68002C03D115E0E468002C12D043461D
:100780001B68002B01D0A342F6D1A368002BF3D045
:100790003100280098470028EEDD03B00CBC9046DD
:1007A0009946F0BD7B6A009A9A42E0D8BA6A0199EC
:1007B0008A4202D301204042EFE7009A9A42D6D003
:1007C00001204042E9E7C046908A00100040054001
:1007D000C8160020CC16002010B50B00140001280C
:1007E00006D1002221001800FFF702FF200010BDF3
:1007F00001204042FBE7C0460D4A1368002B13D08E
:10080000834202D109E0984208D01A00DB68002B2D
:10081000F9D1002900D0D06070471A000029FBD11F
:10082000DB68D360C160F7E70029F5D01060F3E71B
:10083000C8160020084B10B51C68002C06D0636851
:10084000002B04D09847E468002CF8D110BDE46870
:10085000002CF4D1FAE7C046C8160020F0B5464691
:10086000D6464F46D023C0B51B061F68314BA2B0F9
:1008700004000D00180001A9984607F061FE061E4D
:1008800006D1019B9F4203D0404607F069FE013626
:100890008422002101A805F0CBFF2B00220026486E
:1008A00001A901F05DFB019B0700002B15D1234B33
:1008B0001C68002C06D06368002B0CD09847E468B5
:1008C000002CF8D1002E2FD1380022B01CBC90464D
:1008D0009946A246F0BDE468EBE7184B1D689A46BE
:1008E000002D25D0164B994602E0ED68002D13D05F
:1008F0002C68002CF9D04B461B68002B01D09D4280
:10090000F3D16B7C019A002B0AD0280002A9FFF7D3
:10091000F1FDED68002DEBD1534601951C68C8E749
:10092000110002A8A047E0E7404607F0E9FDCBE749
:100930000195C7E7D00B002079050010C8160020EC
:10094000CC1600200FB400B583B004A901C90191F1
:10095000FFF784FF03B008BC04B0184710B5FFF7D9
:1009600091FD01F0E9FB10BD7047C046F8B5574650
:100970004E46DE464546E0B51F000A9B05009B46F5
:100980000D9B0E00914692469B0718D10B9B0C9A2B
:10099000934214D213000B9AB8469B1A4B444C4610
:1009A0000F0006001D0022004346013439002020BC
:1009B000B047AC42F7D1AA4635003E0047460B9BF4
:1009C000002B38D09A441C00D04653461A1B5B4675
:1009D000013C185D31003B00A847002CF5D10D9B70
:1009E0009B0721D543464A469C1A0C9BA3421BD920
:1009F0003A009A464F469146E2194B463100202074
:100A00000134A8475445F7D343460C99DB1B013307
:100A1000B9460022994203D343464A1E4A44D21A99
:100A2000434690460133984440463CBC9046994624
:100A3000A246AB46F8BDD046D1E7C046F0B54F461A
:100A40004646D646C0B584B098460EAB1B78129F7A
:100A5000994694460D9C109B119EBA0725D4002EF2
:100A600069D19C4200D3C2E001223A4092461F2C39
:100A700000D9BBE00C9A551E302201E0202C03D097
:100A800001342A55A342F9D85246002A0DD0B44267
:100A90000BD21F2C62D80C9A551E302201E0202C5C
:100AA0005CD001342A55B442F9D1FA0635D57A051D
:100AB0005DD4002C57D10F9B102B00D17CE00F9BF5
:100AC000022B00D18DE030230C9A012413704B4689
:100AD000002B27D02D230C9A135501340C9B624612
:100AE00000930397434602960194FFF73FFF04B03B
:100AF0001CBC90469946A246F0BDBB0663D4202C90
:100B0000ECD00C9B1A19013478231370202CE5D0FB
:100B100030220C9B1B191A700134202CDED04B465E
:100B2000002BD7D17B0735D43B07D7D520230C9A90
:100B300013550134D2E7012215003D40AA463A423E
:100B400020D04A46002A2AD10C323A4227D19C4270
:100B50009DD21F2C00D88DE7202E19D92024FA060B
:100B6000BCD57A0503D4A3421BD0A64219D00F9B53
:100B7000102BC2D0022BC9D1202CAFD00C9B1B193B
:100B8000013440E09C4200D38FE71F2C00D871E76E
:100B900020248AE72B230C9A135501349EE7013E4B
:100BA000D5E7631E012C00D185E70F9A102A20D0CB
:100BB000022A25D01C00ABE7BB060DD478230C9A83
:100BC00001241370A4E7202C00D187E758220C9B46
:100BD0001B191A70013499E758230C9A01241370D9
:100BE00096E70C9A60330124137091E720240026C5
:100BF0005BE7023CBA06E9D40C9A12191C0083E7A1
:100C00000C9A9246534462221A707FE710B500286E
:100C100000D110BDFFF76CFDFBE7C0460B0010B51F
:100C2000002802D049681B68984710BDF0B5DE4621
:100C300057464E464546E0B59BB09A46249B8B46A8
:100C40009946259B0B9098460C9243464A46484647
:100C5000414605F0DEF9002800D0A3E10122484614
:100C60004146E24B524205F0CFF9002800D099E10D
:100C7000012248464146DE4B524205F0AFF90028BA
:100C800000D08FE1002200234846414605F0A6F936
:100C9000002800D0DEE14A4643460A9209938023A9
:100CA000289ADB001A401192289A1A4201D1062391
:100CB0002693D04B099F9C467800400D604405F078
:100CC000BBF9CD4ACD4B05F047F9CD4ACD4B05F0E8
:100CD00031F93B03CC4A0A9E1B0B1A4304000D005A
:100CE00030001100C94B0022099705F01AF9C84AD3
:100CF000C84B05F031F902000B002000290005F077
:100D000019F905F0B1F90D9005F096F9C24AC34BF7
:100D100004000D0005F020F90022C14B05F00AF98E
:100D200005F0A2F9BF4A0600BF4B2000290005F0DC
:100D300013F9040030000D00109605F07DF9BB4A50
:100D4000BB4B05F009F902000B002000290005F05B
:100D5000E8F802000B0006000F0005F0FDF8320075
:100D600004000D003B003000390005F0E3F80022DC
:100D70000E900F91AF4B2000290005F0E4F80022FF
:100D8000AD4B05F0D7F802000B002000290005F05C
:100D9000DAF80022A94B05F0CDF802000B00200084
:100DA000290005F0D0F80D008021040032003B003E
:100DB0000020C90505F0B5F802000B00200029004D
:100DC00005F0B8F802000B000E980F9905F0BBF87B
:100DD00000228D4B05F0AEF8109B994A1C009446FA
:100DE00064440022230505F0B7F806000F00020056
:100DF0000B000A98099905F0F1F800280AD00D9B1C
:100E00003000013B39000D9300228B4B05F09BF81D
:100E100006000F000D9DC6242B0063339C42A441A5
:100E2000289B644204341B051FD5864A864B0A98CA
:100E3000099905F0E1F8002800D1CCE00022834BAD
:100E40000A98099905F0CAF8002800D1C3E0269A4B
:100E5000954200DA0BE1002326938023289ADB00D9
:100E60001A430023002428920D93279B0025A342B8
:100E700000D91D1B0223289A1A401092289A134267
:100E800003D0634263415B421D400D9B002B07D0A2
:100E90000A98099932003B0005F055F80A9009912B
:100EA000002200234846414605F098F8002805D066
:100EB000802000068446099961440991289A644B70
:100EC0000B9E13400493269B0A9A0293099B039559
:100ED000009201935946534630000C9A00F0CCF82A
:100EE0000500002C6FD0289B2A0098061F23C017EE
:100EF00098436B1C9846594653466530B0470D9B46
:100F00000026DA179D18DB0F99465540013C01E099
:100F1000202E13D00AAA94461F23280063440A21D6
:100F200001369F1904F0B8FD3031397028000A21CC
:100F300004F0B2FD2F000500092FE9D80523069320
:100F4000002304930A3303934B4601960B9E0293AE
:100F500012AB009342465346594630000594FFF7C2
:100F60006DFD109B0500002B2DD00C9B279AC41AF9
:100F7000A24228D981465D4698461700434629007B
:100F80001A19202053460134B047A742F6D84D46DF
:100F90000C9927986B1A01330022984261D20135CF
:100FA000551910E0289B4A460493279B5946039302
:100FB000269B0B98029343460092019353460C9A4A
:100FC00000F05AF8050028001BB03CBC904699463A
:100FD000A246AB46F0BD269B002B00D145E7119BF6
:100FE0005A1E9341269AD31A26933EE7FFFFEF7FBE
:100FF000FFFFEFFF01FCFFFFFB799F501344D33F3E
:10100000B3C8608B288AC63F0000F03F0000F83F5D
:1010100061436F63A787D23F71A379094F930A4059
:101020000000E03F1655B5BBB16B0240EF39FAFE48
:10103000422EE63F00002C400000244000001840F3
:10104000FF0300002D431CEBE2361A3F80842E4143
:10105000FFF7FFFF4B460A9380231B064344099387
:101060001DE60A008446013A6244521B97E7501B72
:10107000431E2693F1E6C046F0B54E46DE4657467F
:101080004546E0B597B09946209E219F229B834616
:10109000984607910C923B0032003000390004F072
:1010A000B8FF002800D0C1E1012230003900CA4B4E
:1010B000524204F093FF002800D0E0E0012230000B
:1010C0003900C64B524204F09FFF002800D0B6E022
:1010D000002230003900C24B04F096FF002800D0F7
:1010E00098E0002230003900BE4B04F077FF002862
:1010F00000D08FE0002200233000390004F06EFFA2
:10110000002800D0B0E000230D93249B5B0501D4A0
:101110000623984608AB9C461722002430234146FC
:10112000624404E0013413550139202C01D009290F
:10113000F8D888463000390004F096FF4346DA00BC
:10114000A94B05009B181A685B680892099304F084
:1011500073FF02000B003000390004F0E2FE089A31
:10116000099B04F0F9FE0A900B9104F0A1FF82465E
:1011700004F05EFF02000B000A980B9904F0D1FE08
:1011800000229A4B0A900B9104F03EFF002800D1F8
:10119000C0E001239C46E244504604F049FF0200AF
:1011A0000B000898099904F01FFF002802D00023C3
:1011B0009A4601354346002B69D008AB17269C465A
:1011C00008956644554614E001235B4243440A21D6
:1011D00028009A4604F060FC013430313719397028
:1011E00028000A2104F058FC092D00D8D5E0D0468B
:1011F0000500202CE8D10323249A1340012B00D1B1
:1012000000E10EAB9846249B01940393239B029329
:1012100043461EE0249B58460493239B0096019767
:10122000039343460C9A029307994B46FFF7FEFC43
:1012300017B03CBC90469946A246AB46F0BD249BF5
:101240005B070ED403226A4B2499019203912399E0
:101250000291009358464B460C9A0799FFF786FB7C
:10126000E6E70422634BEFE73B0032000020002159
:1012700004F057FE012306000F000D9345E7249B61
:101280000393239B0293042301935B4BE1E7280024
:1012900004F0D2FE02000B003000390004F041FEE1
:1012A000524B002206000F0004F098FE0EAB984649
:1012B00000280AD10022300039004C4B04F0A4FE73
:1012C000002802D1EB0700D50135202C32D008AA26
:1012D00094461723280063440A2101341E1904F0A0
:1012E000AFFB3031280031700A2104F0A9FB051E44
:1012F000EBD10323249A1340012B00D191E01F2C42
:1013000000D980E70D9B002B3BD02D23424613557F
:10131000013478E700220A980B99344B04F05EFE02
:10132000002800D046E75346002B67D101239C4696
:10133000E2443FE70323249A1340012B00D062E7E5
:10134000239B002B00D15EE70D9B002B03D1249A39
:101350000C33134202D0239B013B2393239B9C42DB
:10136000CDD208AB9C461722302362441F2C06D8EE
:101370002399013413558C42C1D0202CF8D120245C
:1013800041E7249B5B0721D4249B1B0700D43AE749
:10139000202342461355013435E75746089D202C3B
:1013A00037D0220030214046002F08D00132B154FE
:1013B000202A43D0D3431B191B18002BF6D10EABA8
:1013C00098462E234146541C8B547EE72B234246DD
:1013D0001355013417E7C046FFFFEFFFFFFFEF7F14
:1013E00065CDCD4165CDCDC1088800100000E03F3E
:1013F0000C860010108600101C860010DB0700D43D
:10140000D8E693E7239B002B00D1FAE60EAB984673
:101410009AE70323249A1340012B00D0F1E60EAB88
:101420009846239B002B00D169E78DE7249B03930B
:10143000239B029303230193064B0AE70323249A79
:1014400020241340012B00D0DBE6239B2024002B1B
:10145000DCD1D6E618860010F0B5DE464E4657467B
:101460004546E0B59FB01C00289B93460993CF4AA0
:10147000CF4B894608901A60002900D116E200235C
:1014800020789A46002800D118E226001D004C461C
:101490000AE02A006F1C5B46089D2100A8473D001A
:1014A0000136307800287AD02528F2D110239A46C8
:1014B000083B9946043B9846023B00219C46721C1F
:1014C000107816000300203BDBB2102B03D8B94F75
:1014D0009B00FB589F460300303B092B3CD900235F
:1014E0000A932A2800D171E0002398462E2847D07D
:1014F0000300683BDBB2122B1FD8AF4A9B00D358C6
:101500009F46012301321943DAE76346013219434A
:10151000D6E7434601321943D2E753460132194315
:10152000CEE74B4601321943CAE770786C2800D1E8
:10153000BFE280235B00194301360300253BDBB289
:10154000532BA6D89D4A9B00D3589F4680235B000F
:10155000707819430136F0E700270300B800C0197E
:1015600001364000C018337830381A00303A07008E
:10157000092AF3D90A901800002398462E28B7D1DB
:1015800080237078DB0019430300303B721C092B69
:1015900000D895E12A2800D1A6E11600A8E7A146C7
:1015A000AA462C00D34503D801235B425B449A46EC
:1015B0005B46524649460020089DA84720001FB0C0
:1015C0003CBC90469946A246AB46F0BD099B40CB39
:1015D0000A96002E03DB50780993561C84E72838BE
:1015E000014370420A9009935078561C7CE7782892
:1015F00000D1D4E1582800D168E26F2800D152E32D
:10160000622800D1D8E110230A009A430B9269287E
:1016100001D000F0A2FC0A230C934B0500D4D5E1C5
:1016200001230B9A9A430B92692800D1CEE16428DA
:1016300000D1CBE10B9A802311009B0019408A4610
:101640001A4200D032E3802311005B001940894622
:101650001A4201D000F002FC13005B0600D510E333
:101660000B9B1B0601D400F06EFC099B04CB1204FB
:10167000120C924609935346002B00D064E30B9A58
:101680001033110099430B91520500D45CE3002301
:1016900099460B9B06930A9B0593434604930C9B28
:1016A00003930023DEE27078682800D107E28023EC
:1016B0000136194341E780239B00707819430136B6
:1016C0003BE7462800D174E10722099B04910733C8
:1016D00093430A9A19000392424602920CC9089851
:1016E0000092019309912A005B462100FFF7C4FC98
:1016F00001360500D5E6099B1A0008CA9146002B61
:1017000000D105E1212211438A460EA884461F21FB
:101710006144099500220F27A4460D0002E0202A0B
:101720000CD00B003C001C4020003730092C00D8A6
:1017300007380132A85419090F2BF0D86446099DC7
:10174000F0E08B0700D4D1E1099B2A0099466B1C7D
:1017500098464B4601CB21009946089F5B46C0B294
:10176000B8470A9B9C466544012B00D890E2B246DC
:101770005E464746A846089D3A00330001372100DF
:101780002020A8474745F7D1B3464B4656463D0073
:101790000993013685E62A006F1C5B46089D2100EF
:1017A0002520A84701363D007BE6C04659140010AD
:1017B000541D00202486001068860010B486001096
:1017C000099B04CB994643460992002B00D097E031
:1017D00013789C46002B00D1B3E302235B425A1CD2
:1017E000099B924618000A9F0B92504402E08342E4
:1017F00000D169E15A780133002AF8D1099A0A9791
:101800009B1A0B9380230A00DB001A400C921942AA
:1018100004D00B9B434501D943460B9302231A0086
:101820000A400D920B4200D184E16046002823D08B
:101830000C9B002B00D124E1A844C246099B5746CB
:101840005B1B9846089BB2462A0026005C469B46D6
:1018500009E023003100551CD8474346585D002855
:1018600000D13FE12A009742F3D1A3463D00340066
:1018700056460D9B002B69D00B9B0A99A8469942AE
:1018800064D98C466544ED1A089B47469A46B04693
:1018900026005C463A002300013731002020D04763
:1018A000AF42F7D1A346340046464FE0D24B2078F2
:1018B000089300239A46002800D0E6E5002471E64C
:1018C000434606000A9F9800C01801324000801964
:1018D0001678030030003038303B0928F3D9300047
:1018E000984616000A9703E6099B023604CB9046F9
:1018F000D2434046D2171040804609933078F7E52E
:1019000013789C46002B00D11AE34346013B66E75F
:1019100010220800904311321043824600224905EC
:1019200000D4F2E6534606930823059343460493F6
:10193000102303930023029316AB019200932A0015
:101940005B4621000898FFF779F805004B46013601
:101950000993A6E5202302009A43472A04D1802355
:101960001B01194302239843452801D12023194321
:101970000722099B0491073393430A9A19000392A3
:10198000424602920CC908980092019309912A00DC
:101990005B462100FFF74AF90136050081E5102377
:1019A0000C930C230A009A430B924B0500D43BE6A0
:1019B00036E62023194387E602230C930B910B99FB
:1019C0006428EED10B9B5B0500D529E60B9A80239A
:1019D00011009B0019408A461A4200D0CEE08023B5
:1019E00011005B00194089461A4200D0DBE1130068
:1019F0005B0600D51DE10B9B09991B0600D499E2FB
:101A000008C91BB2D8171A18424092B209919246DF
:101A1000DA0F1292002B09D1802310220B99DB00E0
:101A20000B4091430B91002B00D012E10B9A6123E4
:101A3000920600D541230EA91F228C46DBB26244D8
:101A40000A3B57461395A2464D460C9CB1460D9352
:101A500016000AE03033DBB201357355A74200D2DD
:101A60001CE1202D00D119E107002100380004F00D
:101A700013F8CBB20929EDD90D9A94466344DBB231
:101A8000EAE7099B5F465B1B98460A9BB3469A466A
:101A90002600089C2A003B003100A0474346013540
:101AA000585D0028F6D1534634000A935E46BB4683
:101AB000DFE6C0239B00B078194302363DE5C02322
:101AC000B0781943023638E50A979BE60C230A00E2
:101AD0009A4314331A4310230B920C934B0500D4F2
:101AE000A8E59DE5A34634005646C2E60A9A012AB7
:101AF00000D82EE26B1E9F18089BB0469946260020
:101B00005C462A002300013531002020C847BD4231
:101B1000F7D1A34634004646099B3A0001CB210089
:101B200098467D1C5B46089FC0B2B84743460136C5
:101B30000993B6E40B9A0A98531C904200D80AE223
:101B400043199B1A1F00089BB24626005C469B4621
:101B50002A002300013531002020D847BD42F7D1AB
:101B60000A9BA34601330B93099B34001B7856460E
:101B70009C466046002800D05AE6E7E60722099B0B
:101B800007339343013294469C4462465F6809924E
:101B90001A68FB1710931193109811990300534082
:101BA0000E930B007B400F9394460E9A0F9B121AD4
:101BB0008B410E920F93FB0F6246129300233A4320
:101BC0009A463DD00B9A6123920600D5412300220C
:101BD000DBB20EA90A3B8C4691460D9343461F3259
:101BE0006244139515964D460E9E0F9FA146904652
:101BF0000C9C14930FE0C046690900103032D2B239
:101C0000434601355A55BA4500D17CE1202D00D11B
:101C10007CE106000F00220000233000390003F0B1
:101C200081FFD2B2092AE9D90D9B9C466244D2B207
:101C3000E6E7FF23099904C913401A000991E6E673
:101C40000B9A1033110099430B915205BAD500231A
:101C500099460B9B06930A9B0593434604930C9B62
:101C60000393129B02934B46019316AB2A000093F9
:101C700021005B460898FEF7E1FE01360500FFF7FC
:101C800010FCFF22099B02CB11408A460993F2E423
:101C90004B46454609930136FFF703FC4E46544632
:101CA000A946139DD5E708230C9387E60722099BD5
:101CB00007339343013294469C44624609921A6862
:101CC0005B6810009A4613005246134307D10B9AE3
:101CD0001033110099430B91520500D5D7E40B9AAC
:101CE0006123920600D541230022DBB20EA90A3BF4
:101CF0008C4691460D9343461F32624457461295D7
:101D0000A2464D460400B14690460C9E13930DE04A
:101D10003032D2B2434601355A550023BB4200D17E
:101D2000FDE0202D00D1FDE004000F003200002373
:101D30002000390003F0F6FED2B2092AE8D90D9B43
:101D40009C466244D2B2E5E70B9A6123920600D525
:101D50004123DBB20EA90A3B1F228C460D932300C0
:101D600062445446129517004D469A46B1460C9E61
:101D700008E03033DBB201357B55B4420ED3202D61
:101D80000CD004003100200003F086FECBB20929FC
:101D9000EFD90D9A94466344DBB2ECE74E465446C5
:101DA000A946129D75E4099B1A0008CAD917139217
:101DB0005A184A409146DA0F1292002B08D180231C
:101DC00010220B99DB000B4091430B91002B2BD180
:101DD0000B9A6123920600D541230EAA1F27944631
:101DE000DBB20A3B0D95674455460993A2464C4623
:101DF000B1460C9E08E03033DBB201357B55B4426E
:101E00000ED3202D0CD004003100200003F044FE3E
:101E1000CBB20929EFD9099A94466344DBB2ECE7C7
:101E20004E465446AA460D9D0B9B2A0006930A9BDC
:101E300021000593434604930C9B08980393129B3F
:101E4000013602935346019316AB00935B46FEF7AF
:101E5000F5FD139B05000993FFF723FB099B04CBBA
:101E600091461293002A08D1802310220B99DB009F
:101E70000B4091430B91002B2BD10B9A61239206BF
:101E800000D541230EAA1F279446DBB20A3B0D95CD
:101E9000674455460993A2464C46B1460C9E08E05D
:101EA0003033DBB201357B55B4420ED3202D0CD03C
:101EB00004003100200003F0EFFDCBB20929EFD977
:101EC000099A94466344DBB2ECE74E465446AA4670
:101ED0000D9D0B9B2A0006930A9B21000593434608
:101EE00004930C9B08980393002302935346019399
:101EF00016AB00935B46FEF7A1FD129B050009930C
:101F00000136FFF7CEFAB44200D87FE6149B4C4668
:101F10000E960F97A9469846159E139D99E6A642E0
:101F200000D8FEE6139B4E469846A9465446129D9D
:101F3000FFF7AFFB08C9D8171A184240099166E5A8
:101F400000230B935EE4099B04CB92460993FFF7B1
:101F500092FB2F00E0E50B930BE6063B0C932EE57E
:101F600000B585B00391012102900093034813004E
:101F70004A4202A9FFF770FA05B000BD1D0C00101F
:101F800010B5094A0300146884B0002C08D001225F
:101F900000910648524203A9A047012004B010BD99
:101FA000FEF7B4FB0020F9E7541D00200D0C0010D3
:101FB00070B5184C82B006000D00200001A906F093
:101FC000BFFA002808D1D0231B061B68019A9A4249
:101FD0001CD0200006F0C4FA002001F09DFB002870
:101FE00007D103256D42200006F08AFA280002B0CE
:101FF00070BD002001F0AAFB0028F2D02A003100B9
:10200000002001F0B3FB051EEBD0ECE703256D4289
:10201000ECE7C046741D0020F0B54F46D646464654
:10202000C0B5354B82B007000D00180001A99946D4
:1020300006F086FA002808D1D0231B061B68019AF7
:102040009A4252D0484606F08BFA002001F064FB19
:10205000002842D00024002D44DD284B9A469846A3
:1020600011E03919002001F00DFC060000F0C8FC59
:10207000002001F0B5FB02F0BBFE4346186059603A
:10208000A419AC422EDA002001F018FC2E1B02002D
:10209000B04200DD3200002AE3D100F0B1FC0020A4
:1020A00001F09EFB002001F037FB00281AD0002031
:1020B00001F004FC0028E4D102F09AFE53460E0021
:1020C0001A685B68002184460D4812184B419E42F5
:1020D00008D8D6D19445D4D904E000200021074B7C
:1020E00018605960484606F00BFA02B01CBC9046D6
:1020F0009946A246F0BDC046741D0020F80B002092
:1021000020A107001F2010B501F0FCFFFA200021DC
:10211000800010BD10B5074C0021200006F010FA19
:10212000002800D110BD00F06BFC200006F0E8F99B
:10213000F8E7C046741D002070B51E4B84B01B78B4
:1021400001F0C0FD1F201C4901F0ECFF01211F2000
:1021500001F0C6FF194803F023F902F0A5FC0600C0
:1021600002F046FEFA2204000D000023920012192C
:102170006B41994214D811D00121029100210191A3
:102180000F493000009102F095FC0400631E9C4151
:10219000E4B2002808D1200004B070BD9042EBD911
:1021A00001225242D317E7E701210648FEF724FB3C
:1021B000F1E7C0461C8E001015210010741D002090
:1021C00005210010E402002000487047F888001044
:1021D00000487047AC88001010B5002806D1124B9B
:1021E00012484380063BFF3B038010BD042818D8EB
:1021F0000F4B8000C4580D480023811C04E00133BC
:102200000A800231132B09D0E25C002AF7D1C022E8
:1022100001335B00920013439BB2E5E7CA239B00A6
:10222000E2E70020E1E7C04609040000A016002014
:102230000C890010F0B5982357464546DE464E46B9
:10224000414AE0B5D75880243D0085B06402883B00
:1022500025400393274214D00121392000223B4B13
:1022600025001954597147315A541A75002001320A
:10227000374901F03BF88022364B92021A65364B03
:102280000393FB060CD480235B011F423AD1BD426D
:1022900054D105B03CBC90469946A246AB46F0BD31
:1022A000294B9A6D002A28D09A462A4BB946002617
:1022B00001259B46170003E06D000136202E1BD040
:1022C0002F42F9D05346DB6D5B46682401229D65A1
:1022D00073085C4334239046B2435343E4181B4BCA
:1022E0009C466444200000F03DFA00281AD1AF4318
:1022F00001366D00002FE1D14F4680235B01039D25
:102300001F42C4D00022154900200A700E491D4307
:102310000A600132012100F079FF80220D4B120387
:102320001A65B4E74346E26921790020009300234F
:1023300001F004F8200000F0E1F9D8E7290008488E
:10234000794003F06DF9C04600001150D41600200A
:102350000000105000301150100001008F1D0020AF
:102360002089001010B50121052001F0B9FE10BD33
:10237000094B10B501221970392100230748425436
:1023800042714732835403750022002134300133F7
:1023900000F06EFA10BDC0468F1D0020D41600203C
:1023A0008022024B5202DA647047C046002011506E
:1023B00070B5050000F07AF905201F4901F0B2FE62
:1023C000D0221E4C00212000D20004F031FA00235C
:1023D0001B4A1C4913701C4A402011608022520085
:1023E0006280A280D03AA354184A6370E062E2602F
:1023F000352613600122A2554C36FF36268700266B
:1024000020662430265412491248A36021612270AC
:10241000E38620640360E3633433E2540E4B61646B
:102420001A6480229205DA6490220C49280099509F
:10243000FFF7B6FF70BDC04635220010D41600204D
:102440008F1D002080011050581D00208400105066
:1024500000011050800010500000115010100100B9
:102460000B785B0602D14B78052B09D0012139206E
:102470000022064B5971195447311A755A54704746
:10248000034B1A78034B1A60F0E7C046D4160020BD
:102490008F1D0020000011500A00F8B507234746A1
:1024A000CE46547910792340D4781B02A407034305
:1024B0007F20A20F682480B5897894460840914611
:1024C00044433422A046CE0972433D4D4244AA18EB
:1024D0004FB21171F943C90FD17041424141567059
:1024E000907051716246012A5CD0402B5ED8342234
:1024F0006821724341435218AA18110064463031D2
:102500000C70D362C100002F3CDB2E4C0027A44688
:102510006144D1600F6000283CD02B4CC100A44620
:1025200061449160682434224443A4467243274F97
:1025300062443968AA181161402B00D240233F221F
:10254000CB18134201D0934340333B60204B6822A9
:1025500059404B469C0634230C43A021734342430D
:102560009B18EB189B6809060C431C6034235E43E0
:1025700034335843673B30182B5401200CBC904631
:102580009946F8BD134C0027A4466144D1600F6002
:1025900000280FD1342300227343EB189A600E4AAF
:1025A0001A61E3E78022D2009342A0D319000B48BE
:1025B00003F036F8064CC100A44661449160B1E7CF
:1025C000D41600208400105004001050581D002024
:1025D000000010508000105000011050348900108D
:1025E00010B50C00342011001A00E30958437F2372
:1025F000234068245C43044B0019C018012300F0F9
:1026000037F9012010BDC046D416002070B57F25D3
:10261000342068230D40CC096B4360430C4EC01836
:1026200030188378002B05D143785A425341094A28
:102630000133936680220849120100F069F83421C1
:1026400001234C4334314D4364193419237570BD53
:10265000D416002000201150FFF7FFFF70B57F2532
:10266000342068230D40CC096B4360430C4EC018E6
:1026700030188378002B05D143785A425341094AD8
:10268000013393660022084900F042F83421002308
:102690004C4334314D4364193419237570BDC04621
:1026A000D416002000301150FFF7FFFF80220E4BA0
:1026B000520410B51A600D4B0D491A6010008B685A
:1026C0009843FBD10B4C9C220021200004F0B0F871
:1026D000802200215201084804F0AAF80923636708
:1026E0000333A36710BDC04600E0004000F0004087
:1026F00000C00040000011500000105000230021D5
:102700003222838281548361C36103628362704792
:1027100010B5C368002901D01C682140002A11D0DF
:102720008024E400114322420CD01A6822420BD1CB
:10273000094A0A401A60FFE7FFE7FFE7FFE7FFE704
:10274000FFE7C368196010BD4378044A9B00817895
:102750009A58034802F064FFFFFBFFFFF8020020D5
:102760005C890010F8B5467D0400002E00D168E0B9
:10277000C368C0781D68AD05AD0D002843D1E3697D
:10278000E918E161A269551A402D2ED86B189B1AE1
:102790005F427B412427DBB22562E3558A424DD359
:1027A0004AD0002823D08022D2002A436179002910
:1027B00002D0802080010243012041406171002B42
:1027C00002D08023DB011A43E1680B685B053DD42E
:1027D000224B13400B60FFE7FFE7FFE7FFE7FFE750
:1027E000FFE70020E3681A60F8BD4025CEE7A36A42
:1027F0002A009C462069614404F020F884221202D9
:10280000E35D2A43D2E7E269A36A94466344180071
:1028100021692A0004F012F8E369E078E918E1611F
:102820000028AFD0236A9D42ACD20023012223624C
:102830002433A161E254D7E73000D5E7084802F01D
:10284000EFFE8178074A084802F0EAFE6378054AFD
:102850009B00A1789A58054802F0E2FEFFFBFFFFBB
:10286000A8890010F80200207C8900105C89001003
:1028700070B50400002B49D0437D002B03D000230A
:102880000375322023540023A261E361151C402A02
:1028900031D80123ADB2521B6375534253412426F4
:1028A00025220020DBB22562A162A355A054E27864
:1028B000002A22D08022D2002A436179002902D046
:1028C000802080010243012041406171002B02D031
:1028D0008023DB011A43E1680B685B0519D4114BB7
:1028E00013400B60FFE7FFE7FFE7FFE7FFE7FFE7C6
:1028F000E3681A6070BD4025CBE72A00206903F029
:102900009DFF84221202A35D2A43D6E7FFF72AFF28
:10291000F0E76378044A9B00A1789A58034802F0D4
:102920007FFEC046FFFBFFFFF80200205C8900101D
:10293000024B5878431E9841C0B270471C160020C5
:10294000024B18784007C00F7047C0461C16002085
:10295000F8B537220021214803F06AFF204C2000FF
:1029600002F01EFD1F4B1C601F4C2000183002F0AF
:1029700023FD200001F09EFB1C4B1D4E1D4D1C60D5
:10298000002E04D0280000E000BF1B4B186000247C
:102990002B78002E19D0194E174F9C420FD319D106
:1029A0003300984701342B78E4B2A342F5D20020DB
:1029B000FFF7FEFC0020FFF7D5FC0120F8BDE30087
:1029C0003A681B1B9B009B58EBE700F087FF2B78B6
:1029D000002BECD000231B68FFDEC0461C16002035
:1029E000D4150020541600200003002058160020A3
:1029F000000000008D1D0020EC120020DD380010CA
:102A0000F0B5DE4657464E464546E0B58BB001F080
:102A100069F9002800D122E1B24B07AD9A46B24BCA
:102A20009B4653461E68B269EFF3108372B6116875
:102A30000029FCD0BFF35F8FF3612900300001F063
:102A4000ADF9B2690400F369BFF35F8F0021116033
:102A500083F31088002800D101E16B78082BE0D8BF
:102A60005A469B00D3589F466B68002BD9D0A86864
:102A70009847D6E77F2229799C4B0A405400C80921
:102A80001B191B181800012620304479B4434471E7
:102A900044790336B4434471002A00D1E6E0944AF5
:102AA000DB7C002A06D0934A1278934200D26DE173
:102AB0009B1ADBB2002B00D0D1E08F4C6A792878CA
:102AC000AB68A047ADE7894B0127984642461B7883
:102AD00000203B4313702B78994600F095FD60234E
:102AE0002E793340602B0DD0402B00D1DAE0F60672
:102AF000F60E012E00D154E1022E00D110E1002E7D
:102B000000D1E1E028780021FFF780FD80212878BE
:102B1000FFF77CFD85E7794B002B82D000E000BFFA
:102B20007FE7774B002B00D17BE7704B18780007CD
:102B3000C00F00E000BF74E76E4E6D4A002433788A
:102B4000002A00D198E06F4FA34208D8A34200D0DA
:102B500095E00134E4B2A34200D262E7F6D93968C5
:102B6000E2008C46121B920062449269002AF0D067
:102B70002878904701343378E4B2A342E4D250E796
:102B80003722002159482F7803F052FE1022FF21EE
:102B90005D4803F04DFE55481222FF21133003F02B
:102BA00047FE00F027FD534E514A00243378002A97
:102BB00000D170E0554A9046524A9146A34245D80A
:102BC00066D143463800984701343378E4B2A342D3
:102BD000F4D24F4B002B00D123E700E000BF20E7E9
:102BE000424B37229846002118002F7803F020FE30
:102BF00043461022D81CFF2103F01AFE4046122241
:102C0000FF21133003F014FE00F0F4FC394E384A73
:102C100000243378002A35D03A4A91469C420CD39E
:102C200036D13A4B3800984701343378E4B2A342A6
:102C3000F4D242462B799370F3E64A461268E300D9
:102C400094461B1B9B0063445B68EBE74A46126893
:102C5000E30094461B1B9B0063445B68B2E70BB028
:102C60003CBC90469946A246AB46F0BD6A792878AE
:102C7000AB6800F0DDFCD4E6002B00D1D1E60023E8
:102C80009B69FFDE380000F065FE3378002BD0D062
:102C900000235B68FFDE380000F05CFE3378002B19
:102CA00097D0F5E71B4B002B00D12BE71A480028E3
:102CB00001D000F0A9FC484608A900E000BF0400CC
:102CC000002C00D0ADE61DE7202B00D19AE0002BB0
:102CD00000D017E76B79092B00D913E70F4A9B0047
:102CE000D3589F4658160020CC8900101C1600208F
:102CF000000000008D1D0020113B001000000000AE
:102D000000000000EC1200201F16002055390010B2
:102D1000000000000000000000000000F08900102A
:102D20007F22297A0A400292082A00D9EAE6C809D5
:102D30000190002B00D182E0002453000293019AFD
:102D4000029B94464344C74A6344DB7C002A06D076
:102D5000C54A1278934200D23BE19B1ADBB2002BAA
:102D600000D02DE1C148C24E00F04EFC4846F36849
:102D700008A99847002800D122E160222B791A4245
:102D800000D04EE6002000F03FFC4AE6DA00D31AFD
:102D9000B84A9B001268D318002B00D15FE75C692A
:102DA0008CE62B7A0F2B00D9ACE6AE4A4344DB7895
:102DB000002A05D0AC4A127893425ED39B1ADBB24C
:102DC000002B00D09EE6A948A94C00F01DFC484607
:102DD000E36808A99847002800D022E66022110085
:102DE0002B7919401A4200D08CE66B790A2B00D05F
:102DF00088E606AB9A1C11700123484608A900F02A
:102E00009DFB0EE62B7A0F2B00D97BE6954A4344B7
:102E1000DB78002A06D0944A1278934200D202E16D
:102E20009B1ADBB2002B00D06CE69048904C00F06F
:102E3000EBFBE368484608A99847040040E76B7934
:102E40000393012B00D1D8E0032B00D1CBE0002B62
:102E500000D057E65300019A0293944643446344DA
:102E600020335B7906AA9B07DB0F023213804846AA
:102E7000022308A900F062FB61E77E4ADC00E31A46
:102E800014689B00E418002C00D13BE620699CE705
:102E9000EB88012B00D035E6434608221B7893438C
:102EA0004246484608A9137000F030FBB9E5434696
:102EB0000220197806AB9A1C8B0689080140DB0FAB
:102EC0000B4313804846022308A900F037FBA8E50E
:102ED0004346AA7903925B78002B02D1002A00D0E6
:102EE000D0E04346039A484608A95A7000F00EFB0A
:102EF00097E5434606AA5B780232137048460123E1
:102F000008A900F01BFB8CE5EB88A8791B0A0F2BA6
:102F100000D9F7E5584A9B00D3589F4608A800F00F
:102F200079FB4846A979FFF723FA434602221B782A
:102F300013434246137074E5EB88012B00D0E1E5A2
:102F4000434608221B781343AAE74C4B002B00D1C1
:102F5000D8E500E000BF040006AB9E1C0222A11CC5
:102F6000300003F06BFC22004846338808A900F0CB
:102F7000E5FA002800D054E5C4E5414B002B00D110
:102F8000C0E500E000BF021E00D1BBE54846137853
:102F900008A900F0D3FAECE72989FFF71DF9021E12
:102FA000F4D1AFE5FFF714F9041ED5D1AAE5FFF778
:102FB0000BF91223020008A9484600F0BFFAD8E72F
:102FC00060222B791A4200D07AE6002000F01CFB28
:102FD00076E6284ADE00F31A16689B00F618002EE3
:102FE000EED03069C0E6EB88002B27D05300029367
:102FF000484608A900F08AFAA1E6EB88002BF5D133
:103000004846FFF72BFB019A029B94465B00029314
:103010004344634420335A790399B2435A715A792D
:103020008A435A71E4E7134ADC00E31A14689B00F0
:10303000E418002C00D165E52069F8E64846FFF762
:10304000E5FA019A02219446029B5B0002934344F5
:10305000634420335A790A435A715A7917435F718E
:10306000C6E7C046000000008D1D0020653A001034
:10307000588A0010EC120020188A0010000000008E
:1030800000000000501EC0B2FFF7A2F8002800D1D7
:1030900038E54378022B00D034E50121C2790600DF
:1030A000931152110B400A4012015B011343424637
:1030B00012782F318A43134342461370C3788278C3
:1030C0001B021343C31809360493049BB34200D870
:1030D00088E00023727802930B2A04D13378029699
:1030E000F3181E005A78042A00D00BE5049B424ACC
:1030F0009B1B9BB20193414B00241B78002A10D1EB
:103100001CE09C4226D13E4B31004846019A98472C
:10311000002822D1394B01341B78E4B2A34200D2FB
:10312000F0E49C42EDD2374B1B680593059AE3000F
:1031300094461B1B9B0063449B68E5E731004846AF
:10314000019A00F019FC071E53D12C4B1B78002B61
:1031500000D1D7E400239B68FFDE0700082F00D8CA
:10316000D0E4019BBB4200D2CCE44246B378D218F3
:10317000D178FF2900D0C5E4D470029A002A15D076
:1031800091781000994200D0BCE4127973799A4288
:1031900000D0B7E4C278012A08D9023A0431414488
:1031A000D2B208000132210003F042FB7F2132003D
:1031B00000238C465178052907D16146907801405B
:1031C000490041441331C0090C5411785B189BB27B
:1031D0005218BB42EED3094BF6191B78A34200D319
:1031E00073E78FE4084B002B00D17AE600E000BFC4
:1031F00077E6014CB2E7C046000000008D1D0020BC
:1032000079390010EC1200200000000030B585B0C4
:1032100005000C000C22002101A803F009FB6B46FD
:103220001D715C71042C4BD005D8022C30D0032CBE
:1032300024D105B030BD052C20D12A4B1A78D207F5
:10324000F7D504211A788A431A70274B1C68A269A3
:10325000EFF3108172B61368002BFCD0BFF35F8FC1
:10326000E161200001A900F065FEA269E369BFF3F6
:103270005F8F0021116083F31088DAE71A4B1C6816
:10328000A269EFF3108172B61368002BE6D1FBE759
:103290000121144B1A788A431A701A780331A24319
:1032A0001A7000225A701A788A431A700E4B1C68E2
:1032B000A269EFF3108172B61368002BCED1FBE741
:1032C000084B1A78D207B4D504211A780A431A7029
:1032D000054B1C68A269EFF3108172B61368002BCE
:1032E000BCD1FBE71C16002058160020002330B587
:1032F00085B001AD6B8028700633082202A86B7080
:1033000003F09CFA0C4B1C68A269EFF3108372B6B1
:1033100011680029FCD0BFF35F8FE3612900200012
:1033200000F008FEA269E369BFF35F8F002111601E
:1033300083F3108805B030BD58160020F0B5C6469E
:10334000804600B584B001AC0F00160000210822B1
:1033500020001D0003F06CFA4346237007236370BE
:103360000F4B65711D682771A660AA69EFF3108382
:1033700072B611680029FCD0BFF35F8FEB612100AA
:10338000280000F0D7FDAA69EB69BFF35F8F002129
:10339000116083F3108804B004BC9046F0BDC046B1
:1033A00058160020F8B54746D64680B59846089B83
:1033B00006000C00171E9A4621D0002506E0524652
:1033C000137023780135E418BD4218DA6378052BB1
:1033D00017D1E1788907890F414512D121003000CA
:1033E000FFF75AF800280CD0A378DA09012AE6D1B1
:1033F000099A013513702378E418BD42E6DB0120F9
:1034000000E000200CBC90469A46F8BD10B5FFF7CE
:1034100043F810BD70B57F240C406300144CC909FB
:10342000E418641820346379DB07DD0F002B18D112
:1034300063795B0701D5280070BD01210D4E49421B
:10344000306805F085F86379DB07DD0F002B0AD1C2
:1034500063795B0708D40422637901251343637100
:1034600002E00025E7E70025306805F049F8E2E7CB
:103470001C1600205416002070B50C0001210F4DC1
:103480004942286805F064F87F2121404B000C492F
:10349000E409C918091920314B790024DB0708D445
:1034A0004B795B07DC0F002B03DA04224B79934343
:1034B0004B71286805F024F8200070BD54160020D8
:1034C0001C16002070B57F240C4065000E4C0600D1
:1034D0006419C8092418203465790020ED0700D547
:1034E00070BD01256079284360713000FFF778F8DE
:1034F0000028F5D101226379934363716379033224
:1035000093436371ECE7C0461C16002070B50A4E69
:103510000500082230000C0003F090F900216156EC
:103520000023C943C90F2800F3600022C901B3601A
:10353000FFF756F870BDC046C0150020F8B5CE465E
:1035400047469046294E80B58146082230000D003E
:103550001F0003F073F94346B3600023F381EC7955
:10356000AB7924021C43231CBC4200D93B1C9FB2F4
:10357000B381002C12D0002F1ED04346002B32D036
:103580003B1C402F1ED89FB233787F2B1FD80021C1
:10359000174A3B004846FFF723F809E00021695627
:1035A0000023C943C90F00224846C901FFF718F894
:1035B0000CBC90469946F8BD33787F2B10D98021FA
:1035C0000022E6E740239FB233787F2BDFD9084CF7
:1035D0003A004146200003F031F980212200D8E76B
:1035E00000210022D5E70020E2E7C046C0150020F8
:1035F000DC15002010B514220021024803F018F950
:1036000010BDC046C0150020014B18617047C04670
:10361000C015002010B5054C01000822200003F061
:103620000DF90023A360E36010BDC046C015002063
:10363000F8B5364D1C002B780600DA09C9098A4214
:103640000CD00027002C01D03800F8BD304B0137DA
:10365000002BF9D02900FEF703FFF5E77F2B06D8F2
:10366000A868002837D022002A4903F0E7F8AB68A1
:10367000EA8919191219EB8892B2EA81A96093427A
:1036800015D03F2C13D9AC89A01A071C80B2402852
:103690002DD82B78BFB27F2B2BD80021A24233D05C
:1036A0001C4A3B003000FEF79BFF0700CCE72B696C
:1036B000002B04D029003000984700280DD00021AD
:1036C00069560023C943C90F00223000C901FEF723
:1036D00087FF0700B8E70027B6E700213000FEF7B4
:1036E00095FF80213000FEF791FF0127ACE74027CE
:1036F000CFE7A24207D0074C3A00200003F09EF823
:1037000080212200CDE780210022CAE7C0150020D9
:1037100061240010DC15002010B50400FFF708F943
:10372000002801D1002010BDFFF70AF90028F9D1C7
:1037300060000419230104481C1B24010419012002
:1037400023791840EFE7C046F01200200300400044
:10375000C01810B50301181A0001034B1030C0182F
:1037600000F002FB10BDC046F0120020F0B544008E
:1037700020180401241A24012600C646174F1036CB
:10378000F61900B5300092B200F05CFB0500300085
:1037900000F0F6FA3F2803D8280004BC9046F0BD9C
:1037A0003B190020D9789846FFF734FE0028F3D063
:1037B000300000F0E5FA3F280AD994239B00E21874
:1037C0004346D219D97800204023FFF77BFEE3E778
:1037D00043460020D978FFF74FFEDDE7F0120020C6
:1037E000F8B54746CE4680B547003B181C01E41AA1
:1037F0002401234B26009846283646440500300015
:1038000000F0B2FA002804D100200CBC9046994682
:10381000F8BDA146C1444B4600209978FFF7FAFD58
:103820000028F1D0A4239B009C466444444430000B
:103830004022210000F006FB061E16D0FFF778F8A4
:10384000002812D0FFF77CF800280ED14B461B79D8
:10385000DB070AD54B462200997800203300FFF79A
:1038600031FE0028D0D03000CFE77D192B015D1B41
:103870002D014544A9780020FFF7FEFDC4E7C046AE
:10388000F012002043001B1870B51C01E41A24013B
:10389000094B2834E418050092B2200000F08CFB9C
:1038A0000600200000F060FA3F2801D8300070BD0B
:1038B0002800FFF795FFF9E7F01200200300400011
:1038C000C01810B50301181A0001034B2830C018A6
:1038D00000F056FA10BDC046F0120020B42270B5B8
:1038E0001A4C82B000212000920002F0A1FFFF23B9
:1038F0006371174B8026E3800123002521002000FF
:1039000023817600073365812373320000954031AF
:10391000073B103000F0ECF921002000413132006B
:10392000FF3100950123283000F0E2F990239B003D
:10393000E518280001F034FD92239B006562E5182C
:10394000280001F02DFDE56302B070BDF0120020EB
:1039500000C2FFFF10B5074C05220021200002F035
:1039600067FF2000103000F0A5FB2000283000F099
:10397000A1FB10BDF0120020F0B54B79060083B01A
:10398000022B02D18B79022B03D00025280003B033
:10399000F0BDCB79062BF8D82F4FBB78002BF4D194
:1039A0008B7809253B700C780C196378242B0BD18C
:1039B000082A02D80FE0AA420DD32378E418ED18A4
:1039C0006378ADB2242BF6D0052B20D0042B02D186
:1039D00063790A2B2ED0214C200000F0D1F93F282A
:1039E000D4D92600103E0020F178FFF713FD0028FF
:1039F000CCD0200000F0C4F93F2816D990239B00BA
:103A0000E218F17840230020FFF75CFDBEE72100BB
:103A10003000FFF7FBFC0028B7D0A3787B70237839
:103A2000ED18E4186378ADB2D0E7F1780020FFF725
:103A300023FDABE70A4B2778019301330093022261
:103A400002233000E119FFF7ADFC00289DD00E35B0
:103A5000ED19ADB2BFE7C046F01200200013002000
:103A6000F212002060230A7870B513400024202B46
:103A70000BD10B4A4B790D7910781B022B439842DE
:103A800003D14B780134202B01D0200070BD054BB1
:103A9000002BFAD00020911D00E000BFF5E7C046E2
:103AA000F01200200000000060230A7870B5134077
:103AB0000024202B11D1144A4B790E7915781B0262
:103AC00033439D4209D14B78212B08D81F2B04D9B1
:103AD00007230632FFF732FD0124200070BD222BA0
:103AE000FBD1CD788B782D021D431571FFF70EFDAC
:103AF000064B0124002BF0D029006A080020224048
:103B0000214000E000BFE8E7F012002000000000C4
:103B1000F8B54E464546DE465746E0B51E00644BB6
:103B200080469946DB780D008B4200D072E04F460C
:103B30001037002E19D094245E4BA4004C44002B67
:103B400000D194E04F46A3199B46CA461037210086
:103B5000380000F0EFF953465B79FF2B02D0217853
:103B600099425DD00134A345F1D1534B002B05D0D0
:103B7000380000F0F9F8002800D084E0380000F0A8
:103B8000FFF83F282FD8103FBB789D4207D0012473
:103B900020003CBC90469946A246AB46F8BD474B38
:103BA000002B02D0002000E000BF454C200000F0B8
:103BB000DBF8002838D1200000F0D6F80028E6D144
:103BC000002EE4D0B306E2D1283CA1784046FFF7AE
:103BD00021FC2500041EDAD0002300224046A978EB
:103BE000FFF770FCD4E73C00103C0020E178FFF7C1
:103BF00011FC002839D0380000F0C2F83F2830D935
:103C000090239B00FA1800204023E178FFF75AFC2C
:103C1000A378BAE74B469B788B42C0D00024B7E725
:103C2000002000E000BF9DE72500283D0020A97886
:103C3000FFF7F0FB0028BED09A239B00E718402234
:103C40003900200000F0FEF88246002803D0FEF77D
:103C50006FFE00281BD14B4600209978FFF70CFC23
:103C6000A9E70020E178FFF707FCA3788DE74F462E
:103C7000A3199A46103721003800013400F05AF990
:103C8000A245F8D171E7002000E000BF76E7FEF71B
:103C900057FE0028DFD12B79DB07DCD553463A00ED
:103CA0000020A978FFF70EFC002800D06FE782E71C
:103CB000F0120020000000000000000000000000E2
:103CC0001813002070B5064D2C78002C01D0200070
:103CD00070BDFEF73DFE0028F9D001232B70F6E7FA
:103CE0008E1D0020014B18787047C0468E1D0020A5
:103CF000F0B5C64600B5140006AA1E00137880224F
:103D000005000F009846120294422BD84069002803
:103D10001AD00121494204F01BFC4346AC806400E8
:103D2000A4B22B72631EAB81002368696442EB81ED
:103D30002F60EE806C812B82002811D004F0E0FB14
:103D4000012004BC9046F0BDAC806400A4B22B728C
:103D5000631E6442E8812960EE80AB816C81288219
:103D60000120EEE70020ECE710B5C489018A0200CB
:103D7000601A80B28C4202D25389C01A80B210BD40
:103D800010B5C489018A8388621A92B28C4202D229
:103D90004089121A92B2981A80B210BDF8B5040088
:103DA00040690E00002803D00121494204F0D0FBF5
:103DB000E589208AA9B22A1A83B292B2854202D238
:103DC0006089121A92B2A088A789904205D20A1A75
:103DD000BA422BDC92B222820200002A2ED0BB42D1
:103DE00006D961895B189BB2984203D81B1A9BB213
:103DF0009842FBD9E288216853433000C91802F089
:103E00001DFD012501200122A789218A8BB20918F5
:103E1000B94210DD61895B18D3189BB260692382B7
:103E2000002801D004F06CFB2800F8BD62898218DC
:103E30008A1A92B2CFE79B189BB2EFE700200025C9
:103E4000E3E7C046F0B5C64604004069884617005F
:103E500000B5002803D00121494204F079FBE08934
:103E6000218A82B2451A8BB2ADB2884202D26189F0
:103E70006D1AADB2A688A089AE4207D2931B8342C9
:103E800036DC9BB235002382238A9BB2002D39D0C9
:103E90003A1CAF4231D895B2834205D961895B188B
:103EA0009BB201E09B1B9BB29E42FBD95A192F008B
:103EB000E188B24228DC0A005943236840469C4608
:103EC0006A43614402F0BAFCA089228AD71993B2EE
:103ED000874214DD62899B18EB189BB260692382CC
:103EE000002801D004F00CFB280004BC9046F0BD73
:103EF0006389F318D31A9BB2C4E72A1CCBE75B197A
:103F00009BB2EBE70027E0E7F61AB6B232004A436D
:103F10005943236840469C46614402F08FFCE38885
:103F2000AA1B180070435A432168404402F086FCE3
:103F3000A089CAE7F8B5040040690E00002803D044
:103F40000121494204F004FBE289218A95B2531A07
:103F50009BB2914202D962899B1A9BB2A2889A4273
:103F600026D0A1892B00A94206D26389EB189BB207
:103F70009A4203D89B1A9BB29A42FBD9E2882168E5
:103F80005343C818310002F059FCA389AB420AD947
:103F90000135ADB260690127E581002801D004F048
:103FA000AFFA3800F8BD6389ED180135ADB2F1E71D
:103FB000277A002FD5D1F4E7F8B54746CE4604005E
:103FC00080B515000F00002A52D04069002803D0A8
:103FD0000121494204F0BCFAE689237A208AA188AB
:103FE000B6B280B2002B38D1331A9BB2864202D2CD
:103FF00062899B1A9BB2CB1A1A1C9BB2AB4252D855
:1040000093B298461D00E288A0893300B04205D2E1
:104010006389F3189BB201E05B1A9BB28B42FBD21F
:10402000581988422ADC534321686A43C81839006A
:1040300002F004FCA38975199D421CDD6389F61802
:104040004644B6B26069E681002801D004F058FA0F
:1040500040460CBC90469946F8BDA846E288A94265
:10406000D2D26D1A554388467F19E0810D00CBE707
:1040700000239846ECE74644B6B2E3E7C91A89B292
:10408000894653432168C8184B4639005A4302F009
:10409000D5FB4B46E188EA1A4A4359432068791810
:1040A00002F0CCFBC6E72A1C93B298461D00E288BA
:1040B000AAE7C04610B50400406900280DD00121D0
:1040C000494204F045FA00236069E3812382002815
:1040D00001D004F015FA012010BDE0812082FAE73A
:1040E00001238340002904D0034A1360034A13606C
:1040F0007047034A1360FBE780E200E000E100E064
:1041000080E100E001238340014A13607047C0460C
:1041100000E200E0024B10309B688000C0587047FE
:1041200000ED00E070B50D00EFF3108672B60F4A97
:104130001368002BFCD0BFF35F8F0D4B10309B68D2
:1041400084001B590B4A934203D09D4201D001F0D9
:104150007FFA074B9B681D51BFF35F8FBFF35F8FE3
:104160000022024B1A6086F3108870BD240100D033
:1041700000ED00E0CD020010F0B5DE4657464E4699
:104180004546E0B50C0083B0EFF3108A72B65F4A83
:104190001368002BFCD0BFF35F8F1022914681443F
:1041A0004A465B4B96009B689D595A4B98469D42E8
:1041B00005D0A54216D0584FEB1B2F2B14D9544BCA
:1041C0009B689D51BFF35F8FBFF35F8F00224F4B02
:1041D0001A608AF3108803B03CBC90469946A24608
:1041E000AB46F0BD1D00EAE7012383409B465A46DB
:1041F0004A4B1B681A4000925A46494B1A60BFF35B
:104200005F8FFBF7C8FF0190002803D0814501D0E4
:1042100001F01EFA0123290099438B68A34269D05B
:104220000A0007E043001B189B00FB189868A04297
:1042300011D01A00062010560028F3DA009B002B3C
:1042400005D05A46374B1A60344B1A60B7E75A46C6
:10425000334B1A60B3E706201856002822DB4200D1
:10426000111889007C188846A1689960E179D97194
:10427000062161569971A1797F292BD8A488F91A52
:104280006405241544440919E0240905490D240254
:10429000214399801218244B9200BF181A78187085
:1042A000BA71CBE70198002817D1FF3090711F48F1
:1042B00090801D4ACF1B1078BF109871BB00DB198E
:1042C00019015B1819025B1819045B185B00DB19F4
:1042D0001370B3E7BD210902DBE7154A1549D21A6D
:1042E000083A5002400D01439980134952080A438D
:1042F000DA80A3E7062008560B000028AFDA019AFF
:10430000002AEAD10B004546D3E7C046240100D07D
:1043100000ED00E0CD0200102003002000E100E0ED
:1043200080E100E080E200E0911D002000BDFFFF81
:104330005A03002000F0FFFF00F8FFFFF8B5012549
:1043400004000543FBF727FFEFF3108672B6244AFB
:104350001368002BFCD0BFF35F8F224F8000E11B5E
:1043600089108A0052181301D2181302D2181304AC
:10437000D3181D4A5B005B1891680958A9421CD0EC
:104380000622BA5693421CD01222BA56934222D029
:104390001E22BA56934220D02A22BA5603219A42AC
:1043A00010D0124A11781370A171BFF35F8F0022F1
:1043B0000B4B1A6086F31088F8BD92680C491150B7
:1043C000EFE700214A005218FF219200BA189171BC
:1043D00008499180E5E70121F4E70221F2E7C046B0
:1043E000240100D02003002000ED00E0911D0020FA
:1043F000CD02001000BDFFFFF0B500220324FF270F
:10440000802620003D00094B11009C461040C00052
:104410008540A14361440B680132AB4335008540C0
:104420002B430B60202AECD1F0BDC04600E400E035
:10443000F8B5CE464746914680B5EFF3108772B681
:10444000124E3368002BFCD0BFF35F8FCB08C55CE6
:104450000724C218280001230C409446E0401A00AB
:104460000240904603420DD1A34062462B43137095
:10447000BFF35F8F4346336087F310880CBC9046D0
:104480009946F8BD484601F0CBF8C0462C0100D053
:10449000F8B54746CE46884680B5EFF3108C72B625
:1044A000214D2C68002CFCD0BFF35F8F9A422DD891
:1044B000D408055D071907242E001440E640F107D3
:1044C0001ED507218946063908E0D408055D07197D
:1044D0004C462E001440E640314211D00132934246
:1044E000F3D201204042BFF35F8F00220E4B1A60CF
:1044F0008CF31088002811DB0CBC90469946F8BD5F
:104500000123A3401D4310003D70ECE7BFF35F8F14
:1045100000232B608CF31088012040424346002B7F
:10452000EAD0089801F07CF82C0100D00021044B5F
:10453000044ABFF35F8F02C39342FAD17047C0466B
:10454000000100D0800100D0044A1078431CDBB287
:10455000172B00D9102313707047C0466803002042
:1045600000B5054B83B00100009318221F230348B8
:10457000FFF78EFF03B000BD748A00106C16002098
:10458000024B18688007C00F7047C04600C0064045
:1045900070B504000E001500FFF7D6FF01002000E3
:1045A00000F006F8A680E580BFF35F8F70BDC046BF
:1045B000024B9C4661448900016070474000003412
:1045C00083680B4810B584466144624409011201B6
:1045D0009A18591854684B6801209C4201D802D09F
:1045E0000020C0B210BD12680B689A42F9D8F7E7F4
:1045F000FFFFFF0F40BF002000217047F0B5574676
:104600004546DE464E46E0B583B01F000FAB1B7833
:104610000E9C050092460193002C0DD10268947BFC
:10462000002C56D0116863008C461B196344033B71
:104630005B789373002B54D0AA68E3B29446524639
:104640009B46384B2E68E3181B0163441A600C9A92
:104650005F609A600D9ADA60D02380221B061203F5
:104660005A6163001B19033B984600223368434498
:104670009A705A701A70737B9946002B17D05A465D
:104680001900B06873689847326800282BD14346F8
:10469000D1184B4658465B004B44033BD3189870E7
:1046A0004046125C002A00D05A704B460B705B46A5
:1046B000737352463B00287D00F0EAFB061E02D0D1
:1046C000019B002B26D0109B002B28D020001E70B1
:1046D00000E0002003B03CBC90469946A246AB46A1
:1046E000F0BDD373A8E74B465B004B44033BD118A6
:1046F0008C464146484651188870D35C002B00D048
:104700004B705B46624613704B4620007373A145A5
:10471000E0D1CEE75946286800F004FED3E7200038
:10472000D8E7C046FFFFFF0FF0B5DE464E465746BE
:1047300045460023E0B58DB00A93714B8200D358F3
:104740000B90994600239B464B46079300F050FB85
:10475000079C06000F006268EFF3108572B61368BD
:10476000002BFCD022000794BFF35F8F2468637B8B
:104770009946002B00D170E09268624B90464B4402
:104780001B01984443461A685B6810001900801B9F
:10479000B941002968DD0B9800F07AFB0023002660
:1047A000984600279A46079C6368BFF35F8F5A4676
:1047B0001A6085F310885346002B08D10028C5D114
:1047C0000DB03CBC90469946A246AB46F0BDD02306
:1047D000802280211B06920309035A6199619A6124
:1047E0000A9B414618024B461843D047089009914E
:1047F0006268EFF3108572B61368002BFCD0079443
:10480000BFF35F8F0899099A002A49DB114303D04F
:10481000079B1B69002B5ED1079B1B68DA7B002A74
:1048200007D051008A1819688C4649466244033AF9
:1048300051704A46DA734B46079A013BD168CA5C0D
:104840000132CA545B46079A13615368BFF35F8F06
:104850005A461A6085F3108878E7002300269846A8
:1048600000279A4600209EE7002902D1002800D0A8
:1048700091E70121200000F0B7FC43461E685F6805
:104880009B68079A9A464346DB689846D3684B4430
:10489000013B1B780A931B0203431361002082E74C
:1048A0002369002BB8D033003C005B1A94411A00F6
:1048B0002300A74219D89F421BD0594604910121D9
:1048C0000391494602914146019151460798009152
:1048D000FFF794FEB6E700F08BFA089A099B0600F2
:1048E0000F0092197B419942E5D901225242D31718
:1048F000E3E79642E1D901225242D317DDE7C046F1
:104900005C1D0020FFFFFF0FF8B557464E46DE4600
:1049100045469146E0B504009A464268EFF3108898
:1049200072B61368002BFCD0BFF35F8F2668B57B8F
:10493000002D40D06F0033687F19033FDB195B788F
:10494000B373002B00D1F373374B0022E918A3682F
:1049500009019C464B4661440B6053464B60334B08
:10496000CA608B60D02380211B060903596133681C
:10497000DB199A705A701A70737B9B46002B35D0E6
:104980002A001900B068736898473268002820D060
:104990005B4658465B005B44D719033BB870D1189F
:1049A000D35C002B00D07B705B460D7073735D454C
:1049B0001DD0002626E06368BFF35F8F1D6088F37B
:1049C0001088012040423CBC90469946A246AB4626
:1049D000F8BD5B465B005B44033BD3189D70D11967
:1049E000D25D002A00D05A705B460B7075734A4640
:1049F0005346207D00F04CFA061EDAD029002068CC
:104A000000F090FCE36862685B19013B1B78BFF320
:104A10005F8F0021116088F310880020002ED2D112
:104A200018022843CFE7C046FFFFFF0FF5450010EF
:104A300070B5184C2368002B00D070BD032000F027
:104A4000CBF9032000F086FA1349032000F0DAF9CD
:104A5000182001F0DDFE0500FFF776FD0F4B2A0060
:104A60009C46604480000E496860102000F0C6FA41
:104A700010212860102001F0CFFE0121A860102035
:104A800001F0CAFE03232B75064BE860DD6025604C
:104A9000D3E7C0469C160020294700104000003490
:104AA000C14500105C1D0020014B18687047C046CE
:104AB0009C160020F0B54E465746DE464546E0B50A
:104AC00085B0019310AB1B780600039300239A4630
:104AD000D0231B06994600927268EFF3108B72B6D2
:104AE0001368002BFCD0BFF35F8F3568AC7B002CC4
:104AF00000D188E067002B683F19033FDB195B7822
:104B0000AB73002B00D1EB73B268574B94460099FE
:104B1000019AE3181B01634419605A600E9A9A6067
:104B20000F9ADA6080224B4612035A6100222B68EA
:104B3000DB199A705A701A706B7B9846002B00D163
:104B400080E022001900A8686B6898472A6800284E
:104B50006BD0434640465B004344D719033BB870D3
:104B6000D118D35C002B00D07B7043460C706B7364
:104B7000444568D0F3681B19013B18787368BFF38C
:104B80005F8F00221A608BF310885346002B08D1E8
:104B90000002204305B03CBC90469946A246AB4675
:104BA000F0BD039B002B5CD00E9B00200F99984713
:104BB000030004000D000B4353D000290DDA0098C8
:104BC000019902000B00121BAB41994215D823D06A
:104BD00000920193039B9A467EE700F009F90200D8
:104BE0000B00A4185D412000290000900191AB4208
:104BF00003D8EFD100998A42ECD901235B42DC173C
:104C000000930194E6E77368BFF35F8F1C608BF33A
:104C1000108801204042BDE700999142D8D9012374
:104C20005B42DC1700930194D4E743465B004344A6
:104C3000033BD3189C70D119D25D002A00D05A7062
:104C400043460B706C73307D009A019B00F020F995
:104C50008246002800D18DE72100306800F062FB19
:104C600088E7002096E7C046FFFFFF0F70B5426857
:104C70000400EFF3108572B61368002BFCD0BFF36D
:104C80005F8F2068CAB2437B93420AD0FF230B4058
:104C90005E00F3180668B4466344033B9B78002B20
:104CA00013D0E668FF23B4460B406344013B090A76
:104CB0001E78C9B28E420DD000206368BFF35F8FAB
:104CC00000221A6085F3108870BD22698A42F3D1F0
:104CD0002361F1E7110000F025FBEEE770B50E4D02
:104CE00002000B00060028680C00FFF70DFE011EF5
:104CF00003DD20BF2868FFF7B9FF084B0020596A81
:104D00008C4203D89B6A0130B34200D370BD641A51
:104D1000611E8C41E0B2F9E79C160020004005407E
:104D2000F0B5D6464F464646C0B5EFF305833F2261
:104D3000134018001038EFF3108C72B6204D2A681B
:104D4000002AFCD0BFF35F8F0122110081401D4C6F
:104D5000884661631C4917000E788A463100C140BD
:104D60000F400A4215D019498200646A51588C429A
:104D700019D3174BD25843469E4353461E70BFF378
:104D80005F8F00232B608CF31088002A06D0904799
:104D900004E0BFF35F8F2F608CF310881CBC90463B
:104DA0009946A246F0BD0B4A9B00904643441A68C0
:104DB0001A60BFF35F8F00232B608CF31088EDE740
:104DC000280100D000400540921D00207C1D0020DD
:104DD0005C160020D03F054010B50100024A034890
:104DE000FFF726FB10BDC046988A0010901D0020DA
:104DF000034B596A0A00986A596A8A42FAD1704785
:104E00000040054070B504000D00EFF3108672B647
:104E10001A4A1368002BFCD0BFF35F8F002D1BD004
:104E20002000FFF777F9164981420AD02000FFF7EA
:104E300079F901212000FFF753F90123A340114A1A
:104E40001360114BA400E550BFF35F8F00220B4BA2
:104E50001A6086F3108870BD0B4BA200D55001225A
:104E6000A2400A4920000B7893430B700449FFF7D6
:104E700083F900212000FFF733F9E5E7280100D08E
:104E8000214D0010386005405C160020921D002066
:104E9000F0B5CE46474680B52A4C616A0D00A66A39
:104EA000616AA942FAD18B4207D804D001200CBC18
:104EB00090469946F0BDB242F8D9EFF3108872B629
:104EC000214C21680029FCD0BFF35F8F012585406C
:104ED0001C4C1E4E6563E9B28C46317889466146AA
:104EE0004F4639433170011D89000A51184980002D
:104EF0004350216A002029420CD02000616A0C0036
:104F0000876A416AA142FAD18B4202D80AD1BA42D9
:104F100008D90020BFF35F8F00220B4B1A6088F383
:104F20001088C4E7074B4F461D625D6363469F438D
:104F300001203770BFF35F8F0022034B1A6088F3A4
:104F40001088B4E700400540280100D0921D0020E1
:104F50007C1D002010B5EFF3108472B60A490B686F
:104F6000002BFCD0BFF35F8F01238340074A084822
:104F7000136202789A430270BFF35F8F00230B60C5
:104F800084F3108810BDC046280100D000400540C1
:104F9000921D002070B505000E001400002924D0D9
:104FA000002A24D080686B689847296800280ED0B2
:104FB00063001B197200033B9219CB18033A9E70D1
:104FC00088188A5C002A14D1047030000EE0730047
:104FD0009B196200033B1219CB18033A9C70881886
:104FE0008A5C002A00D05A700670200070BD08004C
:104FF000FCE75A7004703000F8E7C046F0B5C646CA
:1050000005000F0000B510210120160001F004FC7E
:10501000EBB204000373032147602800984601F0B7
:10502000FBFB002363730133A3734346FF21E37348
:10503000FE232060A66029402B4206D0421CFD3B87
:105040000133137003328B42FAD34B0059180023FB
:10505000401803384370200004BC9046F0BDC046A1
:10506000F8B5CE46474606000C0080B5002907D0AB
:105070004D0003686D18033D5A195778002F04D16D
:1050800020000CBC90469946F8BD7900C919033937
:105090008846434459788946002159705170736895
:1050A0003A002100806898473368002814D04246AF
:1050B0009A18947059195B5D002B00D053700F70D3
:1050C000270049463000FFF7CBFF390002003000CF
:1050D000FFF760FF0400D3E7424641465D19AF7019
:1050E0009A185B5C002B00D06B701470E9E7C04627
:1050F000F0B557464546DE464E46E0B50D006B001E
:1051000001685B19DF1E0400C85D83B00192CA19F3
:1051100000284CD043001B18033BCB185E78B446E4
:10512000002E16D1019E002E3ED1E67B002E04D02B
:1051300073009B19CB18033B5D70E57300282FD1DA
:105140000023537003B03CBC90469946A246AB4640
:10515000F0BD72006244033A89184A7890460022F2
:105160004A7091465A70010032002000FFF712FF8A
:1051700043468246002B07D05B0021684344033B33
:10518000CB185A78002A16D1424651462000FFF724
:1051900001FF2168019BCA19002BC6D00028CFD07F
:1051A00043001B18033BCB1800219970C8E7019BF3
:1051B000002BC5D1B9E7500080180338091848788A
:1051C000834648464870587041462000FFF7E2FE8B
:1051D000594680462000FFF743FF41460200200069
:1051E000FFF7D8FE8046CFE7F0B54E464546DE468F
:1051F0005746E0B5467B040075000068AD19033DD5
:1052000083B00191415D421900294ED04B005B18DB
:10521000033BC3185F78BC46002F18D1019D002DB9
:1052200040D1E57B002D04D06B005B19C318033B14
:105230005E70E673002931D1002330005370617332
:1052400003B03CBC90469946A246AB46F0BD7A00FE
:105250006244033A80184278934600224270914695
:105260005A7020003A00FFF795FE5B468046002BFF
:1052700007D05B0021685B44033BCB185A78002AB7
:1052800017D15A4641462000FFF784FE019B0100DA
:1052900020684219002BC4D00029CDD04B005B18E8
:1052A000033BC31800209870C6E7019B002BC3D1B5
:1052B000B7E75000801803380918487882464846F6
:1052C0004870587059462000FFF764FE53468346E5
:1052D000002B07D05B0021685344033BCB185A785E
:1052E000002A06D1594652462000FFF753FE834656
:1052F000C7E7500080180338091848464F784870AF
:10530000587051462000FFF745FE390081462000C5
:10531000FFF7A6FE494602002000FFF73BFE82464B
:10532000E0E7C04670B5040000292CD0437B8B42D7
:105330002ED0056848004018033828188278002AC3
:1053400021D053009B18033BEA5CEE188A4202D13D
:105350001BE0002A08D053009B18033BEB185A7837
:105360008A42F6D142785A7000230022837043703B
:105370002000FFF7BDFE617B02002000FFF70AFE60
:105380006073012000E0002070BD43783370EBE7CC
:1053900000221900FFF7ACFE60730120F4E7C0465D
:1053A00010B50400FFF7D0F801002000FFF700F966
:1053B000BFF35F8F10BDC04610B504000120FFF79A
:1053C000CFF801002000FFF7F3F8BFF35F8F10BDA7
:1053D000094A830094464022634410B51C68C0000B
:1053E0006240C02414408022520113431C60034BCE
:1053F0009C466044416010BD04C001400040014033
:10540000F0B5C646050000B506200E0000F096FA7D
:1054100000284DD0294B2A49EB185A42534180228B
:10542000D20394465B421340264A63441360264AE3
:1054300013601C008A689443FBD1204B8021EB1839
:105440005A425341214A5B0049000620995200F01C
:1054500075FA3100C00000F01FFB7F261C4B064090
:10546000C709013676086F629F4224D0AE622C23B2
:1054700098468024A8444346A4011C4300230620E8
:10548000236000F05BFAB9018919800000F004FB89
:105490006023EA6A414653406E221A4080235B0132
:1054A0000B431A600B4B2B63102323600D3BAB6443
:1054B00004BC9046F0BDAC62D9E7C0460080FCBF9A
:1054C00000C0004000E0004000F00040541E0020FA
:1054D000FFFF000001030000064B9C46604443426E
:1054E00058418023DB039C4640421840024B6044F5
:1054F000186070470080FCBF00E000402B4B2C4A36
:1055000070B51A602B4A2C4B2C491A6010008B681E
:105510009843FBD12A4C2B4B9C4209D2013B1D1BCB
:10552000AD080135AD002D1908CC9847AC42FBD130
:1055300000F094F8244A204B1A60204A9368DB015B
:105540008033FBD14022214B214C9A675A671A675E
:10555000DA66204B9C420BD2013B1D1BED08013546
:10556000ED002D1920000834FFF71AFFAC42F9D1E5
:10557000194C1A4DA168C022280001F05FF9A560FE
:10558000FEF7D4FFFEF738FFFFF752FA144C154B25
:105590009C4209D2013B1D1BAD080135AD002D1900
:1055A00008CC9847A542FBD170BDC04600E0004042
:1055B000BFCDFFFFFE7F3C0000F0004000C0004078
:1055C000D80B0020E80B0020FFFFFF0100F0014096
:1055D000D00B0020D80B002000ED00E000000020E0
:1055E000E80B0020F80B0020094A0300106800288F
:1055F00005D00849C3188B4207D21360704706488C
:105600000449C31810608B42F7D301204042F5E7EC
:10561000D0160020000004208420002000BEFDE7FA
:105620000FB400B5084883B0FBF770F8049B002B5B
:1056300007D005A918000191FCF7A2FC0348FBF76D
:1056400065F800BEFDE7C046BC8A0010CC8A001099
:1056500010B50148FFF7E4FFD08A001030B50C20E8
:1056600083B000F071F9FEF78BFF00280ED09A4B43
:105670009A4A1A605A609A60DA601A615A619A61AD
:10568000DA611A62964A5A6203B030BD954CA0673F
:1056900000F062F90122944B1A60636C012BFCD17B
:1056A0000322924B1A608F4A936B012BFCD1C022CC
:1056B0008F4B92011A608F4B8F491A6010008B68D4
:1056C0009843031EFAD1022401218C4A8C480633E8
:1056D000009400F055F905238A4A01218A48009474
:1056E00000F04EF9894B5A68FF2A02D880225200F6
:1056F0005A608022784C7D4B21691201834D1A60DB
:10570000002905D0606900F0C7F901300138FDD1EA
:10571000E0217E4B02201A681140802252012A4368
:1057200011601968484003210140116004219A6802
:105730001142FCD08022802192012A43090111608C
:10574000802252005A60724B2361724B5968FF29C4
:1057500000D85A6003226F48634B01211A6002008F
:1057600093681942FCD0E02513681D4080235B013B
:1057700003431D6012684A40032111401960022151
:10578000644A93681942FCD0802380219B01034323
:10579000090119608021604B4900516063615F4BD2
:1057A0005A68FF2A00D8596080225D4BE1691201D6
:1057B0005A4D1A60002905D0606900F06DF901307A
:1057C0000138FDD1E02255490B681A4080235B0166
:1057D0002B431A60802380229B012B4312011A6005
:1057E00080223E4B52004A60E3614E4B5968FF29CC
:1057F00000D85A6080224C4B216A1201494D1A6030
:10580000002905D0606900F047F901300138FDD169
:10581000E02244490B681A4080235B012B431A6045
:10582000802380229B012B4312011A608023802257
:105830005B004B60294BD20223623C4B596891427A
:1058400000D25A6080223A4B616A1201374D1A60C9
:10585000002905D0606900F01FF901300138FDD141
:10586000E02232490B681A4080235B012B431A6007
:10587000802380229B012B4312011A608023DB02CC
:105880004B60174B63622B4B5A68FF2A02D8802269
:1058900052005A608022284BA1691201254D1A60DE
:1058A000002905D0606900F0F7F801300138FDD11A
:1058B000E02220490B681A4080235B012B431A60C9
:1058C000802380229B012B4312011A6080235B00FE
:1058D0004B60114BA361D7E670160020006CDC0210
:1058E0001BB70000008000403CB0004030B00040DA
:1058F00000E0004000F0004000C00040002F685968
:105900000080024000389C1C00C0024030800040F3
:10591000001BB7003C800040405973075480004092
:1059200054B000406080004060B000406C80004097
:105930006CB000404880004048B00040014B8000FF
:10594000C0587047701600208023024A9B00034312
:10595000D362704700800540AA23064A1B011360EA
:105960002F230549D360054B19605368002BFCDADF
:105970007047C0460040024000B0FA00006002409C
:10598000F8B51D0006AB1E7801235B42436000237F
:105990000400836001600C20170000F07DF84101D5
:1059A000091A8B01591AC90009188901380000F039
:1059B00073F8C021231D890119432123A0600B60C6
:1059C0002268002AFCDA08232D0436032E43E66001
:1059D0000B60F8BD01480421014B184770030020FB
:1059E000055A0010142310B50100188804331B88D1
:1059F000984710BD162310B50100188802331B8884
:105A0000984710BDF0B5C64600B5002916D014233E
:105A10000400012598461827890046184346216846
:105A200018883B88984701C4431E9841404205406E
:105A3000A642F3D1280004BC9046F0BD0125F9E749
:105A4000144A936F9B0815D29066D166002905D041
:105A5000FFE7FFE7FFE7516F106F704704B5802144
:105A60000906C2175140002800D0C84302F058FD73
:105A7000002104BD936F5B08FDD3F0B5946ED56E25
:105A8000576F166FFFF7E0FF9466D5665767166786
:105A9000F0BD0000000000D0134A936F9B0813D2A2
:105AA00010665166002905D0FFE7FFE7FFE7516F59
:105AB000106F704704B5002801D00020C04302F0E9
:105AC0002FFD002104BDC046936F5B08FDD3F0B5E8
:105AD000946ED56E576F166FFFF7E2FF9466D5662A
